S023000057494E43313530305F434849505F494E464F5F4558414D504C45312E7372656360
S1130000F8210020B9340000B5340000B5340000F4
S113001000000000000000000000000000000000DC
S1130020000000000000000000000000B5340000E3
S11300300000000000000000B5340000B5340000EA
S1130040B5340000B5340000B5340000B534000008
S11300503D1D0000B5340000B5340000B534000087
S1130060B5340000A9220000B9220000C922000012
S1130070D9220000E9220000F9220000B534000072
S1130080B5340000B5340000B5340000B5340000C8
S1130090B53400000000000000000000B53400008A
S11300A0B5340000B5340000B5340000B5340000A8
S11300B00000000010B5064C2378002B07D1054B37
S11300C0002B02D0044800E000BF0123237010BDC0
S11300D0700000200000000028560000084B10B5F6
S11300E0002B03D00749084800E000BF0748036815
S11300F0002B00D110BD064B002BFBD09847F9E72D
S1130100000000007400002028560000285600005B
S11301100000000070B50020084B98470500084C0B
S1130120FA218900A047074B186007492800A04717
S1130130064B18600522064B1A6070BD453200005C
S11301401D3800000000002040420F000400002081
S113015010E000E030B5084B1C68084A00258021F7
S11301604902013807D3002CFBD054609560136812
S11301700B42FCD0F5E730BD0000002010E000E0A9
S113018010B5034B1B68002B00D0984710BDC04628
S11301908C00002070B5441E002804D0024D0120BC
S11301A0A847013CFBD270BD55010000F8B5084CCE
S11301B080277F0567618026360566616420054DCA
S11301C0A847A7616420A847A6616420A847F8BD92
S11301D0004400419501000070B582B00023164A26
S11301E0136001AC01256570A370257021001B20EC
S11301F0124EB04721001C20B04721002820B047F0
S11302000F4B802252055A61802212055A610D4B10
S11302101B681D4203D00B4B1B689B0701D40A4B80
S113022098470A4B98470122094B1A70BFF35F8F16
S113023062B6002002B070BD8C000020A11E000038
S11302400044004110E000E015010000AD01000091
S11302500A00002010B584B00E4B186001AC2000D9
S11302600D4B9847292301930023636001332372C4
S11302700133E37221000920084B98470022092129
S11302800748084B984700210920074B984704B0BA
S113029010BDC0468C000020151E0000291E000061
S11302A081010000D11C0000FD1C000010B50028D5
S11302B004D100210920044B984710BD00210920D6
S11302C0024B9847F9E7C0461D1D0000FD1C0000C5
S11302D030B591B0304C0E23237000236370A370AB
S11302E001A901224A708B700A700E202B4B98478B
S11302F02278D1090023002904D15309DB012849BC
S11303008C4663441F2111400122100088409861EB
S113031002AC2270002303930493C0218903059146
S113032023746374A274E27423752332A354183AB9
S1130330002108A81B4B98471B4BA3621B4BE3628D
S113034001235B4223631A4B63631A4BA3612200AC
S113035019491A481A4B984700281AD1174D2C6886
S11303602000184B98471F2318401E3B8340164A11
S113037013602A68D369002BFCD12368022213433B
S11303802360124B98470120114B9847002011B06D
S113039030BD06204042FAE71C010020A11E0000E7
S11303A000440041D139000002000C0002000D009D
S11303B002000F00001BB7000010004220010020C3
S11303C0092300007922000000E100E0AD010000F3
S11303D095010000F0B5DE4657464E464546E0B569
S11303E083B0032800D075E00E684D680C890022A4
S11303F06B46DA71002D27D0002C65D0002E00D179
S113040077E00023984600239B4601223B493C4861
S11304103C4B98473A4B9A46012704229946594641
S11304204B4259418B46307853461B68197E3942FA
S1130430FCD0197E3942FCD09862197E1142FCD05E
S1130440494689798C4611E0002E3AD0002C3ED0E2
S11304500023984601339B466B46DD1DD5E7604675
S113046001280DD0986AC0B200290DD0197E11421E
S1130470FCD0588B00211042F1D05A831E31EEE794
S1130480986AC005C00DEFE72870013CA4B25D4432
S1130490434659424B41F618002CC4D1184B1968F5
S11304A002220B7E1342FCD0002214491448154B3F
S11304B09847002003B03CBC90469946A246AB4600
S11304C0F0BD0F204042F5E70F204042F2E70F2035
S11304D04042EFE70E22FF320B490C480C4B984781
S11304E00C480D4B98470D200C4B98470120404277
S11304F0E0E7012398466B46DE1D84E71C010020DB
S113050020010020E12400002C4B00003C4B0000A3
S1130510E1390000504B0000FD3A0000153A00009C
S113052030B583B001AB00221A709A705A70134D23
S11305302C682000124B98471F2318401E3B834011
S1130540802210498B502A68D369002BFCD18F3349
S113055023752376236802229343236001A90C2088
S1130560094CA04701A90F20A04701A90D20A047CD
S113057001A90E20A047002003B030BD20010020B7
S11305807922000000E100E0A11E0000002A04D04E
S11305908218017001309042FBD17047024AD3782F
S11305A00133DBB2D37070475C0100207047000058
S11305B000B583B000220A4B9A700120094B98477A
S11305C001A90948094B9847002801D003B000BD90
S11305D00221019B194301910348054B9847F5E714
S11305E05C010020AD02000070100000350F000017
S11305F0410F000070B514001D00002803D000292D
S113060001D0002A12D1002D02D0274B984770BD8B
S1130610264A27492748284B98472848284B984773
S11306200D20284B98470C204042F0E7264B9B684E
S11306309A421AD8244B5B68984226D38618224AD9
S1130640536892689B189E421FD822001F4B9847FC
S11306500028DCD11C4A536892689B189E4201D042
S1130660002DD4D0104B9847D1E7194A10491148AE
S1130670114DA847144B9A6821001648A8470D202D
S1130680104B98470C204042C1E7134A08490948D7
S1130690094B984711480A4B98470D20094B984736
S11306A00C204042B3E7C046B10500006B020000D5
S11306B0844B00003C4B0000E1390000A04B0000DB
S11306C0FD3A0000153A00005C0100204D0F0000C7
S11306D073020000C04B000079020000084C0000C7
S11306E070B5040007281FD88300164AD3589F46C4
S11306F0154B1961002070BD134BD9600020FAE737
S1130700114B59610020F6E70F4BD9610020F2E745
S11307100D4B19620020EEE70B4B99610020EAE7CC
S1130720094B59620020E6E7084A094909480A4D7D
S1130730A84721000948A8470D20094B98470C20D9
S11307404042D8E7644B00005C010020B102000085
S1130750904B00003C4B0000E13900004C4C000081
S1130760153A000010B5282200210648064B984788
S11307700648074B984707490320074B9847002032
S113078010BDC0465C0100208D0500009D050000E1
S113079055020000AD050000E106000030B59FB031
S11307A0040015002C282FD01B283DD006284BD040
S11307B00E2827D0322857D02F2865D0342800D1CE
S11307C077E0112800D196E0132800D1ACE004288A
S11307D000D1BBE0652800D1CAE0092800D1D9E0E6
S11307E02A2800D1E8E0202800D1F7E09222520024
S11307F089498A488A4DA84721008A48A8470D207C
S1130800894B98471FB030BD0023042203A9280058
S1130810864CA0470028F5D1854B1B68002BF1D0EE
S113082003A92C309847EDE70023082203A92800E8
S11308307E4CA0470028E5D17D4B1B68002BE1D0FE
S113084003A91B309847DDE70123302203A92800C0
S1130850764CA0470028D5D1754B1B68002BD1D00E
S113086003A906309847CDE70023142203A92800E2
S11308706E4CA0470028C5D16D4B1B68002BC1D01E
S113088003A932309847BDE76422002103A8694BCD
S113089098470023642203A92800644CA047002839
S11308A0B0D1634B1B68002BACD003A92F30984701
S11308B0A8E70023042203A928005C4CA0470028D1
S11308C0A0D15D48564DA847039C230AFF2003404E
S11308D0220C0240210E204000905848A8470D20C9
S11308E0514B9847524B1B68002B00D18AE70021DB
S11308F03420984786E70022514B1A7000230432B3
S113090003A92800494CA047002800D07AE703AB8C
S11309101A784C4B1A70464B1B68002B00D171E7B8
S113092003A9113098476DE700232C2203A928005E
S11309303E4CA047002800D064E73D4B1B68002BC9
S113094000D15FE703A9133098475BE70023042233
S11309501CA92800354CA047002800D052E7344B8E
S11309601B68002B00D14DE71CA90430984749E7C8
S1130970002304221CA928002C4CA047002800D0E6
S113098040E72B4B1B68002B00D13BE71CA96530CB
S1130990984737E70123642203A92800234CA04782
S11309A0002800D02EE7224B1B68002B00D129E73A
S11309B003A90930984725E70123042203A9280045
S11309C01A4CA047002800D01CE7194B1B68002BC9
S11309D000D117E703A92A30984713E70023082218
S11309E003A92800114CA047002800D00AE703AB54
S11309F09A8828000830012303990C4CA04700284A
S1130A0000D0FFE60A4B1B68002B00D1FAE603A9CD
S1130A1020309847F6E6C046904C00003C4B00005E
S1130A20E1390000CC4C0000153A0000F505000047
S1130A30900000208D050000584C0000AC4C0000D4
S1130A409500002094000020F0B58FB001220F2300
S1130A506B441A70002861D00268324B1A6000227D
S1130A60314B1A700F206844304B9847041E02D053
S1130A7020000FB0F0BD00202D4B9847041E49D133
S1130A802C4901202C4B984704AE30002B4B98473F
S1130A9004002B482B4DA847B37972793179308CF7
S1130AA000902948A8470D20284FB8472448A84754
S1130AB026226A441A2169442548A8470D20B847CC
S1130AC01F48A847737A327AF1792248A8470D2043
S1130AD0B8471B48A8470223052213211E48A847EC
S1130AE00D20B8471648A8471C4A1D491D48A84769
S1130AF00D20B84723000D33BAD1E822FF321A493A
S1130B001A48104B98471A481A4B98470D200F4B18
S1130B109847ADE70020184B9847A9E70C24644296
S1130B20A6E7C04690000020950000209910000020
S1130B30650700009D070000E1060000B50F0000F6
S1130B40584C0000E1390000E04C0000153A000068
S1130B50084D0000244D0000484D0000604D000089
S1130B606C4D0000784D00009C4C00003C4B000094
S1130B70904D0000FD3A00006D110000F0B583B007
S1130B8080256D000543A5246401084F084E290003
S1130B902000B8470023019301A92000B047002892
S1130BA0F5D1019B9D42F2D103B0F0BD410F00008D
S1130BB0350F000000B583B00023019301A911484B
S1130BC0114B9847002801D003B000BD8021490093
S1130BD0019B194301910B480C4B98470028F3D112
S1130BE001A9D0204001084B98470028ECD180216E
S1130BF04902019B19430191D0204001034B9847BE
S1130C00E2E7C04608140000350F0000410F000061
S1130C1010B582B0284B1C68002C04D0264B1C68ED
S1130C20200002B010BD190080204001234B9847DA
S1130C30002803D00022204B1A60F1E701A92048C4
S1130C401E4B9847002803D000221B4B1A60E7E78D
S1130C50194B1B681B4A93420ED01B4A934212D075
S1130C601A4A93421CD01449194A0B681A40A0230B
S1130C70DB0213430B60D1E7019B012BF3D0154A30
S1130C800D4B1A60EFE7019B032BECD0042B03D030
S1130C90114A094B1A60E6E7104A074B1A60E2E76B
S1130CA00549EC208003054B98470028DBD000223F
S1130CB0014B1A60B4E7C04698000020350F0000CD
S1130CC0F4130000A0021000B0021000F0001000A5
S1130CD0FFFFF0FFA1021000B2021000B1021000E9
S1130CE000B583B001A90548054B984700230028A7
S1130CF000D1019B180003B000BDC046F4130000EE
S1130D00350F0000F8B507002D4D2E4C2E4E28004F
S1130D10A047002802DB0120B047F8E72B48294B05
S1130D209847C30709D4284E294C264D0120B047C3
S1130D302000A847274B9842F8D1022F21D0032F37
S1130D4029D0042F30D024492448254B9847002427
S1130D50244B98470005000D234B98422AD82000C5
S1130D60224B98472248234CA0471B492248A047BE
S1130D700D20224B984722491548194B98470020CB
S1130D80F8BD20492048164CA04780214903134848
S1130D90A0470024DCE71B491B48114CA047002155
S1130DA00E48A0470024D3E70B490C480C4B984746
S1130DB08024CDE7022020430C4B9847D2E7C0465D
S1130DC014100000290F000095010000BC07020068
S1130DD00C000C009ED0AD10521352138C10000066
S1130DE0410F0000110C00009F0300007D0B000068
S1130DF0584C0000E1390000044E0000153A000090
S1130E00612F52EF7DD51C3CAC07020070B582B057
S1130E10154B0193154B00930238012811D9012475
S1130E2064420020124E134D009B98420ED00220C3
S1130E30B0470198A847013C002CF5D10520404259
S1130E4009E00D4B01930D4B0093E8E7009A074B23
S1130E5000209A4201D002B070BD00210248084B24
S1130E6098470020F7E7C0468C100000362653024E
S1130E7095010000290F0000AC070200C3C15DD733
S1130E80410F000010B582B00023019301A9A020F6
S1130E904001144B9847041E15D11349019B194076
S1130EA00191A0204001114B9847041E16D0104A0E
S1130EB010491148114B98471148124B98470D207F
S1130EC0114B98470AE0114A0A490B480B4B9847C3
S1130ED00B480C4B98470D200B4B9847200002B051
S1130EE010BDC046350F0000FFFBFFFF410F00009F
S1130EF00B020000AC4D00003C4B0000E139000047
S1130F00B84D0000FD3A0000153A0000050200004B
S1130F1010B5014B984710BDD102000010B5014B2C
S1130F20984710BD2105000010B5014B984710BD2E
S1130F307518000010B5014B984710BD89180000C2
S1130F4010B5014B984710BDA1180000F0B5D64666
S1130F504F464646C0B582B0804689461500134BBD
S1130F601F88083FBBB201931E0004009A421AD99D
S1130F700F4B9A46371A4346E11A4944019A200016
S1130F80D047002809D1AD1B3919A419B542F2D8AC
S1130F90AAB249442000064B984702B01CBC9046B4
S1130FA09946A246F0BD0021F2E7C04608000020A1
S1130FB0E519000070B584B00400002303930822EF
S1130FC0002101A82D4B9847002C44D02822002151
S1130FD020002B4B984703A92A482B4B98470028FD
S1130FE03AD1039B002B39D0C02080021843082239
S1130FF001A9264B984700282ED1029B1804000C07
S113100003902ED0C0239B021843282221001F4B9B
S11310109847002820D121790902A2790F231A4088
S11310200A4361790901FF2529400A43E17909024C
S1131030667A33400B43217A09010D402B43002A81
S113104012D0002B13D012498B4213D8114B9A4261
S113105002D80D3800E0002004B070BD0C204042DE
S1131060FAE70C204042F7E70C204042F4E70C205A
S11310704042F1E70D204042EEE7C046D13900007E
S11310808D05000008000C00350F00004D0F000016
S1131090521300005113000070B5002837D00578B2
S11310A06B1E032B00D901250020204B9847041EFA
S11310B02FD11F481F4CA0471F4B984701001F48C2
S11310C0A0470D201E4B98471E4B984728001E4BE7
S11310D09847041E17D128001C4B9847041E12D1B0
S11310E0023D012D11D91A4B9847041E0DD05622EA
S11310F0FF32184918480F4B98471848184B98471F
S11311000D200F4B9847174B9847200070BD0125C1
S1131110CAE72822FF320F490F48064B9847124866
S11311200F4B98470D20064B9847EEE7110F000030
S1131130584C0000E1390000110C0000D44E0000AE
S1131140153A0000B9180000050D00000D0E00004E
S1131150B50B00001C4E00003C4B0000984E0000F4
S1131160FD3A00001D0F0000B84E000010B51C4BE6
S11311709847041E0BD100201A4B9847041E14D123
S1131180194B9847041E1DD1184B98470BE0B62203
S1131190520017491748184B98471848184B984756
S11311A00D20184B9847200010BD7422FF321049BF
S11311B01048114B98471448114B98470D20114B78
S11311C09847F0E77A22FF3209490A480A4B9847C0
S11311D00E480B4B98470D200A4B9847E3E7C0464F
S11311E0850E0000411B00001D0F00006518000063
S11311F0284E00003C4B0000E1390000384E00004E
S1131200FD3A0000153A0000584E00007C4E0000E4
S113121000B585B001AB019000220292198119003A
S11312200320024B984705B000BDC046D50300001B
S113123070B584B008AC257801AC20703F30C4B2DE
S11312400E2C00D984E0A0004F4C2058874601ABF7
S11312500A0C5A700A0A9A70D97005214B4B1B78F4
S1131260002B77D00139C9B283E00B0ADBB2002D21
S113127007D101AA537001AB99700022DA700521DD
S1131280ECE780225242134301AA5370F3E701AB07
S113129000225A709A70DA700521DFE701AB002250
S11312A05A709A70DA700521D8E701ABFF225A70A0
S11312B09A70DA700521D1E701AA080C5070080A67
S11312C09070D170190A117153710721C6E701AAF0
S11312D0080C5070080A9070D170190C1171190A19
S11312E0517193710821B9E70B0ADBB2002D0CD1BF
S11312F001A8437001AB9970110ED970110C1971CA
S1131300110A59719A710821A8E7802040420343C9
S113131001A84370EEE701AB080C5870080A9870F6
S1131320D970110E1971110C5971110A9971DA7170
S1131330092193E72822FF3215491648164B98478E
S11313401648174B98470D20164B9847002317E073
S1131350002315E04E1E01AA95197F23124C5B0051
S113136010784340E35C0132AA42F8D15B0001AA41
S1131370935589B201A80D4B984701230028D9D170
S1131380180004B070BDC046E44E00009C0000206C
S1131390244F00003C4B0000E139000000520000E3
S11313A0FD3A0000153A0000804F000011120000C1
S11313B000B585B001AB0022019202901981190099
S11313C00320024B984705B000BDC046D50300007A
S11313D0F0B5C64600B582B00700CF282BD0030075
S11313E03B33DBB2012B26D90B246B46DE1D264B87
S11313F0984601213000C047051E25D13378BB42F1
S113140030D0013CE4B2002CF3D10B346B46DE1D2A
S11314101D4F01213000B847002825D13378002B17
S11314202FD0013CE4B2002CF3D10125280002B0F6
S113143004BC9046F0BD01216B46D81D124B984761
S113144000250028D0D0F1E7B12252000F491048FE
S1131450104B98471048114B98470D20104B984754
S11314600025E3E70B24D1E7B822520007490848D6
S1131470084B98470848094B98470D20084B984754
S1131480D4E70125D2E7C046B11300002C4F000079
S11314903C4B0000E13900002C520000FD3A0000F2
S11314A0153A0000F0B5DE4657464E464546E0B5CF
S11314B087B001908946029200239A4680239B01BB
S11314C09B466A46D3813B4B98462EE03A4A3B49B9
S11314D03B483C4B98473C483C4B98470D203C4B81
S11314E098470025280007B03CBC90469946A24680
S11314F0AB46F0BD002C2EDD019B5344180039008F
S11315002C4B9847041E33D1029B002B03D1314B43
S11315101B78002B39D05346FB181BB29A464B4616
S1131520DF1BBBB29946002B42D04F46D94501D9A7
S11315306B46DF89BFB20A2404ABDE1C01213000F4
S1131540C047051EC2D133781B090F2BD2D0013CF2
S113155024B2631CF2D1204A18491948194CA047F7
S113156004ABD9781D48A0470D20194B9847B9E71B
S1131570C522920011491248124B98471848134B40
S113158098470D20124B9847ACE7022105A8094B58
S113159098470028BFD0134A08490948094B98477F
S11315A011480A4B98470D20094B9847250099E7A5
S11315B0012597E7B1130000FF020000384F000037
S11315C03C4B0000E139000060520000FD3A00008D
S11315D0153A00009C0000200B0300009452000008
S11315E0C45200001F030000F4520000F0B5D646B8
S11315F04F464646C0B586B00390049130280FD8B4
S1131600304B1F78FBB205930023302203998A42A2
S11316105B41DBB29A460A252B4B9846D14633E010
S11316202A4B1F78EEE70598294B984704000128B8
S113163041D0E722920027492748284EB047039912
S11316402748B0470D20274B98470120264EB04726
S11316500023009300220021CF201B4FB847CF2046
S11316601B4B9847214A1B491B481C4FB847049BF6
S1131670039A29001E48B8470D201A4B98470120A9
S1131680B047013D002D16D04B4600930423049A25
S1131690039F39000598C04704000128C3D0154AA8
S11316A00C490D480D4EB04739001348B0470D2082
S11316B00C4B9847C9E7200006B01CBC90469946DD
S11316C0A246F0BD204F000031120000214F00005F
S11316D0D1130000484F00003C4B0000E1390000EA
S11316E0EC530000153A000095010000AF03000020
S11316F02454000096030000C0530000F0B5DE46F9
S113170057464E464546E0B587B002908B46FF28C3
S11317100FD8414B1F78FBB203930023FF22029999
S11317208A425B41DBB29A460A253C4B9846D14635
S113173031E03B4B1F78EEE703983A4B984704009F
S113174001283FD0384A394939483A4EB0470299BE
S11317503948B0470D20394B98470120384EB047DF
S11317600023009300220021CF202C4FB847CF2024
S11317702C4B9847334A2D492D482E4FB847029A8F
S113178029003148B8470D202C4B98470120B04719
S1131790013D002D37D04B46009304230022029FC5
S11317A039000398C04704000128C5D0274A1F49BF
S11317B01F48204EB04739002548B0470D201F4B25
S11317C09847CAE74A46042105A8224B98470400D3
S11317D001280BD0204A15491548164B98471F4835
S11317E01F4B98470D20154B9847B6E705AA537829
S11317F01B02917809040B4311780B43D27812062B
S113180013435A461360200007B03CBC90469946E7
S1131810A246AB46F0BDC046224F00003112000084
S1131820234F0000D11300001D040000584F000096
S11318303C4B0000E139000054530000153A00000D
S1131840950100003C040000A853000017040000A8
S113185028530000A514000024040000885300004D
S1131860FD3A00000022024B1A7000207047C04667
S11318709C00002000B583B001A9024B9847019851
S113188003B000BDFD16000010B5044B98470023BB
S1131890012801D1180010BD063BFBE7FD1600002E
S11318A010B5044B98470023012801D1180010BD3E
S11318B0063BFBE7ED15000010B582B00023009352
S11318C0354A137069463548354B9847002828D067
S11318D0314B1B78002B0DD17C33009999432C3B61
S11318E0194300912D482F4B9847041E39D00122EB
S11318F0294B1A7001A980204001294B98470028E0
S11319003BD0264C2000284B984770230100994374
S1131910502001432000254B98470024200002B0AA
S113192010BD01221C4B1A70214A22492248234B24
S113193098472348234B98470D20234B98476946E3
S11319401648174B9847041EC2D1204A19491A4811
S11319501A4B98471E481B4B98470D201A4B984723
S1131960DCE71C4A13491448144B98471A48154B92
S113197098470D20144B9847D0E7184A0D490E4854
S11319800E4B984716480F4B98470D200E4B98471F
S113199006246442C2E7C0469C00002024E80000FC
S11319A0FD160000ED15000075180000A1180000D8
S11319B0C7040000744F00003C4B0000E1390000F4
S11319C080500000FD3A0000153A0000CA040000EF
S11319D0D0500000D4040000FC500000DE040000DD
S11319E030510000F0B5DE4657464E464546E0B558
S11319F087B00290039116000A2500239B46002419
S1131A003E4B9846A94637E001239B46013635E014
S1131A10C8203B4B9847012845D03A4A3A493B48AD
S1131A203B4FB84702993B48B8470D203A4B98477B
S1131A3001203A4FB8470094230022002100CF2010
S1131A402E4DA847CF202E4B9847354A2E492F4874
S1131A502F4B9A4698473300029A49463148D0475B
S1131A600D202D4B98470120B84701235B429C462B
S1131A70E1444B46002B38D0012EC5D000943300EE
S1131A802200029D2900C820C0470128C0D0264A50
S1131A901D491E481E4FB84729002448B8470D2049
S1131AA01D4B9847C4E75B46002B16D005AF2200B8
S1131AB0310038001E4B98473B78039A1370012875
S1131AC011D01C4A10491148114B98471A481B4B16
S1131AD098470D20104B9847AAE72200310003983D
S1131AE0134B9847EBE7002001E00620404207B083
S1131AF03CBC90469946A246AB46F0BD311200006C
S1131B00D113000063040000684F00003C4B000048
S1131B10E139000084510000153A000095010000ED
S1131B2084040000E45100005D04000054510000EE
S1131B30A514000073040000BC510000FD3A00002D
S1131B4070B582B004002A4B98470005000D294B5C
S1131B500025984202D8280002B070BD01A9264889
S1131B60264B9847051EF6D1254B019A134025496B
S1131B70194301912048244B9847002C20D0002180
S1131B802248214CA047AB212148A04701212148EC
S1131B90A04700212048A04781212048A047204E8B
S1131BA0204C3000A0470128FBD1154B019A13406B
S1131BB080214902194301910F48134B9847CAE702
S1131BC000211248104CA047B9211148A047012117
S1131BD01048A04700211048A04781210F48A04782
S1131BE00F4E104C3000A0470128FBD1DDE7C04662
S1131BF0110C00009F03000010140000350F0000BA
S1131C00FF8F88F800101101410F00000802010045
S1131C100C020100140201001C0201000402010074
S1131C2018020100290F00000C4B1B68002B06D181
S1131C30EFF31083002B07D00022094B1A70074AD8
S1131C40136801331360704772B6BFF35F8F0022CD
S1131C50044B1A700132024B1A70F0E7A000002006
S1131C60A40000200A000020084B1A68013A1A60F8
S1131C701B68002B09D1064B1B78002B05D00122D1
S1131C80044B1A70BFF35F8F62B67047A000002048
S1131C90A40000200A000020F0B583B001AC0125A7
S1131CA065700027A770257021001720064EB047E5
S1131CB080221204054B9A61277065702100372039
S1131CC0B04703B0F0BDC046A11E0000004400416F
S1131CD01723002A01D0180070478B00064A9B582E
S1131CE0002B03D0834205D01D23F4E789008850DC
S1131CF00023F0E70023EEE78801002017230029E2
S1131D0001D01800704700221F2800D8024A01237E
S1131D108340D3600023F4E7001800401723002910
S1131D2001D01800704700221F2800D8024A01235E
S1131D30834093600023F4E70018004070B500224C
S1131D40104B1A70002310491F25104E0D4C0AE049
S1131D500D4908E023780133DBB223700F2B10D830
S1131D6000211F2BF4D92800184001228240086961
S1131D701042EFD00A619B009B59002BEAD0984790
S1131D80E8E770BD840100200018004088010020AD
S1131D90044A137802210B43137053785BB2002B6F
S1131DA0FBDB70470018004000B583B0124A93690A
S1131DB040210B43936101A900230B7005200F4BB5
S1131DC0984705200E4B98470E4A137801210B4380
S1131DD0137053785BB2002BFBDB0B4B19004031C3
S1131DE0002204C39942FCD11022084B1A60084B0C
S1131DF0984703B000BDC046000400405D330000B6
S1131E00D1320000001800408801002000E100E009
S1131E10911D00000023036043600122027242729C
S1131E2083720233C3727047F0B583B005000C00AF
S1131E3001A900234B70CB7023790B70237A8B702C
S1131E402078154B984700201F2D00D813480722EF
S1131E502A409200E77AA37A002B01D008231F437B
S1131E60EB089B00C31899690F269640B14397402D
S1131E703A000A439A61637A002B06D1436901222E
S1131E80AA409343436103B0F0BD42690123AB40D0
S1131E9013434361F7E7C04655340000001800407F
S1131EA000B583B001AB80221A700A785A704A7860
S1131EB09A708A78DA701900014B984703B000BD14
S1131EC055340000F0B5DE4657464E464546E0B56B
S1131ED087B08046049116001F00002200230021D1
S1131EE08B463F2401202100009601975C46039411
S1131EF04446059413E02024641A0500E540A846EE
S1131F0014E0009C019D121BAB415C464D462C43E2
S1131F10A346039C45462C430394013925D320242E
S1131F2064420C19E7D40500A540A84604008C407F
S1131F30A14692185B4114001D00059E4F463E4089
S1131F40B446049E47463E40B246664657463E4324
S1131F5003D00600264332002B00009C019D9D42C5
S1131F60DBD8CED19442D8D8CBE7039B584619008E
S1131F7007B03CBC90469946A246AB46F0BD10B5AE
S1131F80490840230024814202D2180010BD1C00DD
S1131F90091A631C9BB28842F9D94023FF2CF4D858
S1131FA014800023F1E70000F0B583B00F001600A1
S1131FB008AA117804004C434022BC4202D9100004
S1131FC003B0F0BD002B14D1020008000021194C0D
S1131FD0A04701003A0000230020174CA04700222C
S1131FE00123121A8B41120C1B041A433280002263
S1131FF0E5E70022012BF9D10A00002300210D4C52
S1132000A04702000B0000920193380000210A4C03
S1132010A047050080239B0140229842CFD8790F26
S1132020F800009A019BA047EA00821AD2B2520338
S11320302A43DBE735390000C51E000010B582B025
S113204004000E4B1B78002B07D0002905D10B4B45
S11320505B78834210D01D200CE001A90C70132082
S1132060074B98471320074B9847044B5C70012299
S11320701A70002002B010BD0020FBE7A800002069
S11320805D330000D1320000404B984231D00AD970
S11320903F4B98424DD03F4B98425AD03E4B9842CA
S11320A037D0002070473D4B98420CD03C4B9842AF
S11320B0F7D1012917D000295DD0022915D00329B1
S11320C015D00020EEE7012907D0002951D00229BC
S11320D005D0032905D00020E4E73248E2E732487E
S11320E0E0E73248DEE73248DCE73248DAE73248F4
S11320F0D8E7012907D000293FD0022905D00329B8
S113210005D00020CEE72D48CCE72D48CAE72D485E
S1132110C8E7012907D0002931D0022905D00329B5
S113212005D00020BEE72848BCE72848BAE728487D
S1132130B8E7012907D0002923D0022905D00329B3
S113214005D00020AEE72348ACE72348AAE723489C
S1132150A8E7012907D0002915D0022905D00329B1
S113216005D000209EE71E489CE71E489AE71E48BB
S113217098E71E4896E7032094E71D4892E71D4818
S113218090E71D488EE71D488CE7C04600100042CA
S113219000180042001C00420014004200080042E3
S11321A0000C0042030005000300060003000700C2
S11321B00300010003001E0003001F0003000900C8
S11321C003000A0003000B000300110003001200C7
S11321D00300130003000D0003000E0003000F00B2
S11321E00300170003001800030019000300040093
S11321F0030008000300100003000C000300160095
S113220030B587B00B4B6A4632CB32C232CB32C2C6
S1132210009B83420BD001239A00694652588242A4
S113222006D00133062BF7D1002007B030BD0023C0
S1132230D8B2FAE74054000070470000F0B50A4BEA
S11322401B78002B0CD1094F094E0A4D0024DE5196
S11322505A1914600433182BF9D10122024B1A7055
S11322608000024BC150F0BDAA000020AC00002049
S113227039220000C801002000B583B009236A4652
S1132280137001335370013393700133D3700133EE
S1132290137101335371034B98476B46185603B0BF
S11322A000BDC0460122000010B5024B1B6800208F
S11322B0984710BDAC00002010B5024B5B680120AC
S11322C0984710BDAC00002010B5024B9B6802205B
S11322D0984710BDAC00002010B5024BDB6803200A
S11322E0984710BDAC00002010B5024B1B690420B8
S11322F0984710BDAC00002010B5024B5B69052067
S1132300984710BDAC000020F0B58BB005000C0060
S1132310160029600B681C209B0701D50BB0F0BD8B
S11323200B681738DB07F9D40800604B9847604AFC
S1132330116A871C0123BB400B43136209A924279C
S1132340F35D0B701430C3B201931800594B9847D6
S11323500198594B9847F05D0021584B98473378C2
S1132360012B38D02B000C3329002831002204C360
S11323708B42FCD10023EB62AB620024AB862B863C
S11323803633EC540133EC540133EC54353B6B726B
S11323902C712868454B984707004949494B984791
S11323A0BF00494BFD502F6804AB80221A705C704B
S11323B07F3A9A70DC703378002B02D1002204AB90
S11323C09A70B36A0593F36A0693336B0793736B3E
S11323D0089300240BE023680C2213432360C1E715
S11323E038003A4B98470AE00134042C10D0E1B28B
S11323F0A30002AA0C201218D0580028F0D0431CC5
S1132400F2D004A90870000CC0B2314B9847EBE736
S113241033786B71337CAB71B37CEB71337D2B728E
S1132420002202ABDA803378012B28D07368B268BB
S11324301343F2681343317C727C002A03D1254A8A
S11324409278920701D580221343B27C002A02D0ED
S1132450802292021143F27C002A02D08022920050
S11324601143327D002A02D08022920111433A683E
S113247013433B607B680B437B6000204EE7286876
S11324800A4B98471430C0B2134B9847010002AB73
S11324909A1DB069114B984703001720002B00D0F8
S11324A03CE702AB06331B783B73BFE70122000015
S11324B0000400405D330000D13200003D200000E4
S11324C0D52500003D220000C8010020892000001D
S11324D05534000000200041793300007F1F0000C4
S11324E010B544791523012C01D0180010BD047ACD
S11324F00023002CF9D1002A58D04B78002B44D06B
S113250003681B7EDB0710D40A78D1090023002955
S113251004D15309DB012E498C4663441F21114029
S113252001228A409A610523DFE70A78D40900234F
S1132530002C04D15309DB01254CA44663441F2419
S113254014400122A2405A6103681A7ED20701D5C1
S11325508A789A62C2790023002AC6D102680421CB
S1132560137E0B42FCD0117E00234907BDD5538B4B
S11325705B0701D5042353838379012B02D0936A2B
S11325800023B2E7936A0023AFE70A78D109002356
S1132590002904D15309DB010D498C4663441F21F2
S11325A0114001228A405A6100239EE70A78D1092A
S11325B00023002904D15309DB0105498C466344F7
S11325C01F21114001228A409A6100238DE7C046F1
S11325D000440041F8B58000704BC4582668372386
S11325E0E75C3622A25C1740337EB57D1D40EB07C5
S11325F002D56379012B1ED06B0711D5738B5B0752
S11326005AD5637A012B08D01E223823E254353B75
S11326106372023333753B074AD4B36A042373836A
S1132620AB0703D56379012B00D197E06DB2002D80
S113263000DAA9E0F8BD637A002B22D0637A002B7C
S1132640DAD02168E26A1378DBB2501CE062A07928
S1132650012827D09BB2DB05DB0D8B62A38E013BE7
S11326609BB2A386A38E9BB2002BC5D101333375D5
S1132670637A012BC0D1E379002BBDD10233B3754A
S1132680BAE7474B1B88B362638E013B9BB26386F8
S1132690638E9BB2002B01D1013333756379012B17
S11326A0CCD0A9E75078000203430232E262D2E7B9
S11326B02000A3699847B0E7637A012B28D02368E8
S11326C09B6ADB05DB0DDAB2A16A0A70A26A511CAF
S11326D0A162A179012934D0238E013B9BB22386C8
S11326E0238E9BB2002B00D09AE700223833E254A9
S11326F0343B3375637A022B29D0637A002B00D0E4
S11327008EE7BB0700D48BE720002369984787E74F
S113271023689B6A638E013B9BB26386638E9BB284
S1132720002B00D07CE70433337500223433E254A9
S1132730353B6372FB0700D472E72000E3689847D7
S11327406EE71B0A5370A36A0133A362C4E77B07D5
S113275000D465E720006369984761E7637A012B39
S113276000D063E7E379002B00D05FE702333375D1
S11327700133637200223533E254FB0700D455E77A
S11327802000E368984751E78023337533767B064E
S113279000D44FE7636A200098474BE7C801002044
S11327A0E0010020F0B5DE4657464E464546E0B50A
S11327B091B005000C00160029600800BC4B984736
S11327C0020023680520DB0706D511B03CBC904607
S11327D09946A246AB46F0BD236817309B07F4D454
S11327E0B449086A971C0123BB4003430B620FA939
S11327F02D27F35D0B701432D3B202931800AE4B45
S113280098470298AD4B9847F05D0021AC4B984730
S1132810F37A6B712423F35CAB712523F35CEB71C6
S1132820F37E2B72337F6B722B6898461800A04B93
S11328309847143000220E2306A98C4663441A805C
S1132840328A02928023DB019A4200D19EE00FD9A2
S1132850C023DB01029A9A4200D192E080231B023A
S11328609A4200D01FE1032306930023079308E054
S113287080239B019A4200D015E1102306930F3B5D
S1132880079333680593F368039373690493337E62
S11328909B462623F35C9A4673689946002B00D125
S11328A0A0E080235B05994500D184E0737E002B72
S11328B002D0B37E424693732A68029FD369002BE9
S11328C0FCD10E3306AA944663441B884246938186
S11328D0059B039A1343049A13434A4613431F4325
S11328E05B461B021F4353465B071F432723F35CCE
S11328F0002B01D104331F43737E9B02327F5202AB
S11329001343727F120213432422B25C5204134312
S11329102522B25C12041343B17AF27A11431943AB
S11329203389FF2B00D181E08022520417431943DD
S11329302C23F35C002B03D1624B9B789B0701D5BE
S113294080231F432A68D369002BFCD14346596076
S11329502A68D369002BFCD143461F600EAB80224A
S11329601A7000225A70DA709A70336B0A93736B80
S11329700B93B36B0C93F36B02930D9300270AAE86
S113298063E008230693073B07937AE733680593CC
S1132990F368039373690493337E9B462623F35CA5
S11329A09A4673689946002B18D080235B05994595
S11329B001D0002025E02723F35C002B00D075E72D
S11329C0336A1F00C0B2404B984701000E2206AB89
S11329D09C46624438003D4B984712E00823069316
S11329E0002307932723F35C002B0ED0069B009350
S11329F0079B0E2206A98C466244B16A306A344FA2
S1132A00B847002800D0E0E650E7336A1F00C0B2A0
S1132A102D4B98470100069B0093079B0E2206A8A6
S1132A208446624438002A4FB847EAE7F37E002B15
S1132A3000D17DE78023DB041F4379E72000254B89
S1132A40984707E00137042F0DD0F9B2BB0098591D
S1132A500028F3D0431CF5D00EA90870000CC0B2B6
S1132A601D4B9847EEE70023EB602B616B61AB6174
S1132A70EB612B62AB626B620022EB85AB8530337A
S1132A80EA540133EA540133EA540133EA5428681E
S1132A90074B984704001149114B9847A400114B68
S1132AA0E550002091E61023069300230793E8E6FF
S1132AB001220000000400405D330000D132000018
S1132AC03D20000000200041793300007F1F0000FA
S1132AD0A91F00008920000055340000852B000048
S1132AE03D220000C8010020C2791C23002A01D124
S1132AF018007047C28D92B2173B002AF8D10368C0
S1132B00DA69002AFCD1198502211A7E0A42FCD016
S1132B100023EDE782791C23002A01D118007047B5
S1132B20828D92B2173B002AF8D10268107E4007CA
S1132B30F4D5D369002BFCD1538BDBB298061DD09E
S1132B40980703D5022353831833E7E7580703D5BF
S1132B50042353831A33E1E7D80703D501235383AE
S1132B601233DBE7D80603D5102353833233D5E77A
S1132B709B0603D5202353832133CFE7138D0B808A
S1132B800023CBE7F8B58000624BC5582C68E36995
S1132B90002BFCD1237EA67D1E403023EB5C31222A
S1132BA0AF5C1F40F30722D5EB8D9BB2002B1CD0EA
S1132BB0AA6A1378DBB2511CA962697901290ED083
S1132BC09BB2DB05DB0D2385EB8D013B9BB2EB85D3
S1132BD0002B0CD1013323750133A37507E0517821
S1132BE009020B430232AA62EBE701232375B30700
S1132BF006D50223237500223133EA54FB071AD485
S1132C00730765D5AB8D9BB2002B5FD0638BDBB2B2
S1132C101A0714D43F221340002B34D09A0711D53D
S1132C201A223223EA54303B63837B0750D52800B1
S1132C306B6998474CE02800EB689847E0E7372237
S1132C401340E9E75A0705D51E223223EA542E3BE6
S1132C506383EAE7DA0705D513223223EA54313BCA
S1132C606383E2E7DA0605D542223223EA54223BA3
S1132C706383DAE720221A42D7D021323223EA547E
S1132C80123B6383D1E7238DDB05DB0DDAB2696A7E
S1132C900A706A6A511C69626979012910D0AB8D86
S1132CA0013B9BB2AB85002B12D104332375002268
S1132CB02E33EA54BB070BD528002B69984707E04D
S1132CC01B0A53706B6A01336B62E8E704232375B4
S1132CD0F30604D5102323752376FB060ED4B3061E
S1132CE004D52023237523763B070BD4330704D55F
S1132CF0082323752376BB0608D4F8BD2800EB69A6
S1132D009847ECE72800AB699847EFE72B6A28005F
S1132D109847F2E7C801002010B5082803D88000BE
S1132D201B4B1B589F46002030E01A4B18692DE0BE
S1132D30194B1B6A9B059B0F1848D84026E0154B7E
S1132D40586923E0134B1B6800209B071ED51249CA
S1132D501022CB681A42FCD00E4B1B685B0701D4CF
S1132D600F4813E000200F4B98470A4B9B681B0445
S1132D701B0C58430AE05023074AD35C00205B072E
S1132D8004D5044BD86801E08020000210BDC04681
S1132D9058540000C40000200008004000127A00CB
S1132DA0006CDC027933000070B50C490B6A0478BE
S1132DB0857840780122104080014026B3430343C4
S1132DC02A40D2018020834313430322224012026B
S1132DD00348034013430B6270BDC0460008004023
S1132DE0FFFCFFFFF0B5DE4657464E464546E0B5CC
S1132DF00100264B9B469B8A45780078424242411B
S1132E0091468878CA7894460A7990464E7B0F7B1F
S1132E108C7B8A681E494A6101214A469200914688
S1132E20042293434A46134342460A40D200904642
S1132E30082293434246134362460A4012019446D1
S1132E4010229343624613430840400120229343D7
S1132E5003430F40BF01402083433B430E40F60130
S1132E60403083433343793805402D0209480340F9
S1132E702B4321400903084803400B435A469382DD
S1132E803CBC90469946A246AB46F0BD00080040C3
S1132E90C4000020FFF8FFFFFFEFFFFF10B5037A27
S1132EA09B061B0C42899205920D134318494B60F3
S1132EB08379C27913434288848822431343427836
S1132EC0D20113430B600378042B11D0202B0ED1B5
S1132ED0037B9B06028A1343C28912040D490A40EC
S1132EE013430B4A936011680B4B0B43136010BDE3
S1132EF0037B9B06028A1343C289120405490A40D4
S1132F001343034A9360136804210B431360EEE7F1
S1132F10C40000200000FF0324040000082803D894
S1132F208000254B1B589F46172044E0234A136A10
S1132F3002210B43136200203DE0204A93690221E1
S1132F400B439361002036E01C4A138A02210B4391
S1132F50138200202FE0194A938A02210B439382A3
S1132F60002028E016490B68022213430B60134B20
S1132F709A8419000E32CB681A42FCD0104A916828
S1132F800E4BD96252689A6200229A841900103258
S1132F90CB681A42FCD00A4B1B689BB2074A938445
S1132FA0002008E0054944228B5C022003438B5433
S1132FB0002000E0002070477C540000000800401E
S1132FC0C4000020F0B58FB0C222D200474B9A60F3
S1132FD0474A53681E218B431A390B43536002221C
S1132FE001AB1A700024434DE0B201A9A847013493
S1132FF0252CF9D10AA800230370837080221202C1
S11330008260C370012202710373837302324270BF
S11330104373394B98470520384B9847334902226C
S1133020CB681A42FCD0314A938A80210B439382A5
S113303005AB00210022598099809A71DA713F31E1
S113304059813B3919705A702D4B1B689B0E3F2BCD
S11330504AD005A803722B4B03820723037338332A
S1133060C381294B984704A8002545700126867022
S11330700570264B98470620204FB847244B9847A5
S113308001AC0296657025726572052323702100D8
S11330900120204B984701201F4B984726702100A0
S11330A00020144B984700201C4B98470720B84732
S11330B00E49D022CB681340D02BFBD1184A0023F1
S11330C0137253729372D37201A901224A604B7036
S11330D00B724B7207330B7000200E4B9847002085
S11330E00D4B98470FB0F0BD203BB2E700080040FD
S11330F0004000415D330000E52D00001D2F00005D
S113310024608000B90500009D2E0000A92D000058
S1133110253100004931000001320000D1320000A5
S113312000040040064A936908210B43936101227D
S1133130044B1A7019000B781342FCD17047C04637
S113314000040040000C004070B5060004000D7837
S11331502D0205434B78002B02D08023DB021D4354
S11331604B7A002B02D080231B031D43486801289F
S113317010D9431E184234D1022830D90223002228
S113318001325B009842FBD81202324314008023C0
S11331905B031D430B7A002B02D080239B031D434A
S11331A0134A53785BB2002BFBDB124B9847124B4C
S11331B01E700F4A53785BB2002BFBDB0C4B9C60F8
S11331C01A0053785BB2002BFBDB094A5368802159
S11331D049020B401D435560084B984770BD0022BF
S11331E0D2E70402344380239B021D43D2E7C04646
S11331F0000C0040291C0000080C0040691C000061
S113320010B504000B4A53785BB2002BFBDB0A4B6E
S113321098470A4B1C70074A53785BB2002BFBDBC0
S1133220044A516880235B020B435360044B984764
S113323010BDC046000C0040291C0000040C0040D6
S1133240691C000070B504001A4A53785BB2002B65
S1133250FBDB194B9847194B1C70164A53785BB229
S1133260002BFBDB134E7068C004C00E144B984750
S11332700500124B1C707668F602F60F114B1C7099
S11332800C4A53785BB2002BFBDB0A4B9C6824028C
S1133290240C0D4B9847002E07D1012C07D921008F
S11332A028000A4B9847050001E00134E540280056
S11332B070BDC046000C0040291C0000040C0040F6
S11332C0192D0000080C0040691C00001D38000086
S11332D010B50400064B9847064B1C70064A5388E9
S11332E08021C9010B435380044B984710BDC0464D
S11332F0291C0000020C0040000C0040691C000066
S113330010B504000F4B98470F4B1C700F4A53889D
S11333101B05180F53880E490B40538053880D49E1
S11333200B40538011008022D2014B881342FCD100
S113333006494A8803020648024013434B80064B61
S1133340984710BD291C0000020C0040000C0040EE
S1133350FFF0FFFFFFBFFFFF691C000010B50C78F2
S113336024020443024B9847A4B2024B5C8010BD74
S113337001330000000C004010B50400064B9847D0
S1133380064B1C70064B5C882405240F054B98479C
S11333902000054B984710BD291C0000020C00407A
S11333A0000C0040691C00004532000030B5D378A1
S11333B0002B35D11378802B29D01B06802464027E
S11333C0234354780225AC4306D19478002C20D1B1
S11333D08024A402234341605478013C012C1CD96D
S11333E00D042D0CA024E4052C431C4384620D0C15
S11333F0D02424062C431C438462D478002C22D18C
S11334005B031CD59378012B1ED0416117E0002388
S1133410D7E7C024E4022343DDE70D4C2340DFE774
S113342041600C04240CA023DB05234383620C0CB1
S1133430D0231B0623438362D378002B03D1537814
S1133440013B012B02D930BD8161F8E78160FAE7C5
S1133450FFFFFBFF10B50A00C1090023002904D1B6
S11334604309DB0105498C4663441F2420400121A4
S113347081401800024B984710BDC04600440041EB
S1133480AD3300007047000010B5054B9847054B5D
S11334909847054B9847054B9847054B984710BDEF
S11334A0C52F0000991C000085340000A91D0000F0
S11334B085340000FEE70000F8B52A4A2A4B9A42F8
S11334C011D01A00294B9A420DD2294A03339B1A70
S11334D09B0801339B000022234822498C588450C6
S11334E004329A42FAD1234A234B9A420AD2D34352
S11334F021495B1803218B4304339B18002102C22A
S11335009342FCD11D4AFF211D4B8B439360FD392F
S113351090235B001B4AD1501B4AD3780325AB434D
S113352002242343D370D3780C27BB4308263343A8
S1133530D370164B987B302290432022104398730B
S1133540997BB943314399739A7BAA4322439A7373
S11335500F4A536880210B4353600E4B98470E4B20
S11335609847FEE728560000000000207000002065
S11335700400002070000020F401002000ED00E0B1
S1133580000000000070004100500041004800416C
S11335900040004189390000B1360000F0B5C6464C
S11335A000B50C00904600280FD1002A11DD8F18B9
S11335B0094E0A4D306821002B6898470134BC42FB
S11335C0F8D1404604BC9046F0BD01235B429846C6
S11335D0F7E78046F5E7C046EC010020E40100204F
S11335E0F0B5C64600B50E0015000138022810D803
S11335F0002A11D000240C4B98460C4F43461868FF
S1133600315D3B689847002808DB0134A542F5D1B9
S113361006E00124644203E0140001E00124644252
S1133620200004BC9046F0BDEC010020E80100201D
S11336300300064A1268002A04D0044A1068C3181A
S1133640136070470249014A1160F6E7DC0000206C
S1133650F821002001204042704780239B014B60E9
S113366000207047012070470020704770B582B079
S113367005000E0000226B46DA80064C6B46991D4D
S11336802800A0470028F9D16B4606331B88337005
S113369002B070BD152B000070B505008CB2034E4E
S11336A021002800B0470028FAD170BDE92A0000A3
S11336B0F0B597B03E4B98478023DB050093002379
S11336C00193FF2269460A8100228B72CB72012486
S11336D02421684644540131445401314354013196
S11336E043540A93053143540131435405930382EF
S11336F0C376027602774276132383764277C42315
S11337009B03039301235B420C930D93294B0E936C
S1133710294B0F93E1235B020893284D284B1D602E
S1133720284A294B1A60294A294B1A606A462949B2
S11337302800294B9847294F3B6898680021284E58
S1133740B0473B6858680021B0472E683000254BCD
S113375098471F2318408440234B1C602A68D36970
S1133760002BFCD133680222134333601F48204BE3
S11337709847204B98471822002110A81E4B9847C1
S113378010A81E4B9847011E03D01D481D4B984797
S1133790FEE71D4B984701001C481A4CA0471C4BE0
S11337A0984701001B48A0471B48114B9847FEE768
S11337B08934000003002A0003002B00E0000020ED
S11337C0EC01002099360000E80100206D3600006D
S11337D0E401002000180042A52700000C0000208E
S11337E0113B00007922000000E100E0A054000039
S11337F0FD3A0000D9010000D1390000490A000057
S11338000C550000E1390000110C00003455000093
S1133810E10C0000485500006455000000224308F4
S11338208B4274D303098B425FD3030A8B4244D384
S1133830030B8B4228D3030C8B420DD3FF220902C6
S113384012BA030C8B4202D31212090265D0030B85
S11338508B4219D300E0090AC30B8B4201D3CB037B
S1133860C01A5241830B8B4201D38B03C01A5241BD
S1133870430B8B4201D34B03C01A5241030B8B42BF
S113388001D30B03C01A5241C30A8B4201D3CB02AA
S1133890C01A5241830A8B4201D38B02C01A52418F
S11338A0430A8B4201D34B02C01A5241030A8B4292
S11338B001D30B02C01A5241CDD2C3098B4201D3AA
S11338C0CB01C01A524183098B4201D38B01C01A28
S11338D0524143098B4201D34B01C01A524103099F
S11338E08B4201D30B01C01A5241C3088B4201D34E
S11338F0CB00C01A524183088B4201D38B00C01AFB
S1133900524143088B4201D34B00C01A5241411A21
S113391000D20146524110467047FFE701B500202E
S113392000F006F802BDC0460029F7D076E77047DC
S11339307047C046F0B5CE46474615042D0C2E0000
S113394080B50704140C3F0C9946030C7E435D4379
S1133950674363437F19340CE4199C46A54203D999
S113396080235B029846C4444B4651434343360488
S1133970360C250C24046544A4195918491920004F
S11339800CBC90469946F0BD70B500260C4D0D4C0C
S1133990641BA410A64209D1002601F035FE0A4D8D
S11339A00A4C641BA410A64205D170BDB300EB58A9
S11339B098470136EEE7B300EB5898470136F2E733
S11339C01456000014560000145600001856000047
S11339D003008218934200D1704719700133F9E74C
S11339E00FB40B4B13B51C68002C05D0A369002B36
S11339F002D1200000F006FB05AB049AA168200068
S1133A00019300F0DBFC16BC08BC04B01847C046A8
S1133A100C000020084B70B51C680500002C05D074
S1133A20A369002B02D1200000F0ECFA2900A2685F
S1133A30200000F067FF70BD0C00002070B5050089
S1133A400E00002804D08369002B01D100F0DAFABB
S1133A50AB69AC68002B02D1280000F0D3FA244BE8
S1133A609C420FD16C68A3891B0702D52369002BE4
S1133A7020D12100280000F057F900281AD0012095
S1133A80404270BD1B4B9C4201D1AC68EBE71A4B22
S1133A909C42E8D1EC68E6E7013B0136A360002BC9
S1133AA004DAA269934216DB0A2914D023685A1C4B
S1133AB0226019703178A3680029EDD1013BA3601D
S1133AC0002B0FDA22000A31280000F0D7F8431C3B
S1133AD0D5D00A20D5E72200280000F0CFF8431CF7
S1133AE0E8D1CCE70A2023685A1C22601870C8E782
S1133AF094550000B45500007455000010B5034BF4
S1133B0001001868FFF79AFF10BDC0460C000020A2
S1133B104A424A41802310B55200DB0000F002F80B
S1133B2010BD0000F0B51D004F4B85B01E680400A9
S1133B300F000092002E05D0B369002B02D1300093
S1133B4000F060FA494B9C4250D17468009B022BF0
S1133B5005D0012B00D984E0002D00DA81E021009A
S1133B60300000F0E1F9616B002908D023004433F0
S1133B70994202D0300000F051FB0023636300231C
S1133B80A3616360A3891B0603D52169300000F09B
S1133B9045FBA389364A1340A381009B022B5AD0CC
S1133BA003AB02AA2100300000F0C2FAA389184333
S1133BB0A081002D24D1029D280000F025FB019551
S1133BC0071E42D1029B0193AB4239D101204042EE
S1133BD00223A2891343A3810023A3602300473354
S1133BE0236023610123636105B0F0BD214B9C4236
S1133BF001D1B468AAE7204B9C42A7D1F468A5E799
S1133C00002FD9D0B369002B02D1300000F0FAF9AB
S1133C10009B012B03D1A389009A1A43A281082097
S1133C20A389276027616561184018D001201840D6
S1133C300023984211D06D42A360A5611800D3E718
S1133C40019800F0E1FA071EC0D08023A289019DEB
S1133C501343A381D6E70020BAE7A560C4E7A060B8
S1133C60C2E701204042BFE70C0000209455000049
S1133C705CF3FFFFB455000074550000F8B505006F
S1133C800E001400002804D08369002B01D100F039
S1133C90B9F9224B9C422DD16C68A369A360A38916
S1133CA01B0731D52369002B2ED023682269F7B274
S1133CB0981A6369F6B2984205DB2100280000F0E7
S1133CC033F9002826D1A3680130013BA36023689F
S1133CD05A1C22601F706369984204D0A389DB07D1
S1133CE01AD50A2E18D12100280000F01DF9002849
S1133CF012D00FE00A4B9C4201D1AC68CDE7094BCE
S1133D009C42CAD1EC68C8E72100280000F00CF8F6
S1133D100028CAD0012676423000F8BD9455000030
S1133D20B455000074550000364B70B51D6806008C
S1133D300C00002D05D0AB69002B02D1280000F047
S1133D4061F9314B9C420FD16C680C23E25E93B253
S1133D5019072DD4D90611D4092301203360373330
S1133D601343A381404270BD284B9C4201D1AC68EF
S1133D70EBE7274B9C42E8D1EC68E6E75B0713D5F9
S1133D80616B002908D023004433994202D03000EB
S1133D9000F044FA002363632422A3899343A3819C
S1133DA000236360236923600823A2891343A3814A
S1133DB02369002B0BD1A0218022A38989009200C2
S1133DC00B40934203D02100300000F0D9F90123C5
S1133DD0A289134011D00023A36063695B42A361ED
S1133DE0002023698342BED10C23E25E1306BAD5B8
S1133DF040231343A3810138B5E7920700D46369D4
S1133E00A360EDE70C00002094550000B4550000B9
S1133E1074550000F7B58A8905000C00130760D4B7
S1133E204B68002B04DC0B6C002B01DC0020FEBD76
S1133E30E76A002FFAD000232E682B6080235B01F1
S1133E401A4034D0606DA3895B0706D56368C01A35
S1133E50636B002B01D0236CC01A0200216A00237B
S1133E602800E76AB847A189431C06D12B681D2B9B
S1133E7031D82C4ADA40D3072DD500236360236957
S1133E802360CB0405D5431C02D12B68002B00D141
S1133E906065616B2E600029C8D0230044339942C9
S1133EA002D0280000F0BAF900206063BFE70123C4
S1133EB0216A2800B847431CC5D12B68002BC2D007
S1133EC01D2B01D0162B01D12E60AFE74023A28910
S1133ED01343A381ABE740230B430120A38140425A
S1133EE0A5E70F69002FA1D00B680F60DB1B0193BE
S1133EF00023920700D14B69A360019B002B00DCD7
S1133F0094E7019B3A00216A2800A66AB04700287A
S1133F1003DC4023A2891343DFE7019B3F181B1AEC
S1133F200193EAE7010040200B6970B505000C001D
S1133F30002B01D1002070BD002804D08369002B20
S1133F4001D100F05FF80B4B9C4209D16C680C2244
S1133F50A35E002BEED021002800FFF75BFFEAE709
S1133F60054B9C4201D1AC68F1E7044B9C42EED175
S1133F70EC68ECE794550000B4550000745500005B
S1133F8010B5024900F0B2F810BDC046293F000048
S1133F90002310B50400036043608360818143669D
S1133FA0C281036143618361190008225C30FFF719
S1133FB00FFD054B24626362044BA362044BE3626E
S1133FC0044B236310BDC04695490000BD49000061
S1133FD0F5490000214A000070B568254A1E554382
S1133FE00E002900743100F063F9041E08D000218A
S1133FF02A00016046600C30A0606832FFF7E8FCDC
S1134000200070BD836913B50400002B28D183649C
S1134010C3640365134B144A1B688262019398427C
S113402001D101238361200000F020F860602000AA
S113403000F01CF8A060200000F018F80022E060F6
S113404004216068FFF7A4FF01220921A068FFF79B
S11340509FFF02221221E068FFF79AFF0123A36168
S113406013BDC04670550000813F0000F8B51E4BDB
S113407007001E68B369002B02D13000FFF7C2FFAE
S11340804836B4687368013B04D53368002B07D005
S11340903668F6E70C22A55E002D0DD06834F2E7F1
S11340A004213800FFF798FF30600028F0D10C237A
S11340B004003B602000F8BD012320005B42E38143
S11340C00233A38165662560A5606560256165612D
S11340D0A561082229005C30FFF77AFC6563A563BB
S11340E0A564E564E6E7C04670550000F7B5040032
S11340F00700002601914834002C01D13000FEBD98
S11341006368A5680093009B013B009301D5246874
S1134110F2E7AB89012B08D90E22AB5E013304D040
S113412029003800019B984706436835EBE70000F7
S113413070B50E001D000E23C95E90B01400002956
S113414007DA00232B60B3891B0611D48023DB001C
S11341500FE001AA00F090FC0028F2DBF022029BA1
S113416012021340054A9B185A4253412B60EDE753
S113417040230020236010B070BDC04600E0FFFF64
S1134180F7B502268B8905000C00334206D02300C4
S113419047332360236101236361F7BD01AB6A46A2
S11341A0FFF7C6FF00990700280000F081F80028F7
S11341B008D10C22A35E9A05EFD4032293431E4335
S11341C0A681E4E70F4BAB628023A28920601343EE
S11341D0A381009B20616361019B002B0DD00E2302
S11341E0E15E280000F05AFC002806D00322A389CF
S11341F093431A0001231343A381A0893843A08168
S1134200CBE7C046813F000010B5034B010018689E
S113421000F04EF810BDC0460C00002070B505003B
S1134220002910D00C1F2368002B00DAE4182800A2
S113423000F065FC1D4A1368002B05D1636014600F
S1134240280000F05DFC70BDA34209D92168601804
S11342508342F3D118685B6841182160EEE71300CC
S11342605A68002A01D0A242F9D919685818A04204
S11342700BD120680918581819608242E0D11068DF
S11342805268411819605A60DAE7A04202D90C2337
S11342902B60D5E721686018824203D11068526808
S11342A04118216062605C60CAE7C04614010020C6
S11342B0032370B5CD1C9D43083506000C2D1ED27A
S11342C00C25A9421DD8300000F019FC254A1468B9
S11342D02100002919D1244C2368002B03D130007C
S11342E000F046FB20602900300000F041FB431C35
S11342F02CD10C233000336000F002FC03E0002DCD
S1134300DFDA0C233360002070BD0B685B1B1AD40A
S11343100B2B03D90B60CC18256003E08C420ED123
S113432063681360300000F0EBFB200007220B30C1
S1134330231D9043C31AE7D05A42E250E4E74B6886
S113434063600C00EEE70C004968C2E70323C41C59
S11343509C43A042E0D0211A300000F009FB431C2A
S1134360DAD1C6E71401002018010020936810B5C3
S1134370013B9360002B05DA9469A34208DBCBB2BE
S11343800A2B05D01368581C10601970C8B210BDF0
S1134390FFF774FCFBE7F8B506000F001400D5180E
S11343A0AC4201D1002007E021783A003000FFF749
S11343B0DDFF0134431CF3D1F8BD0000F0B59FB01C
S11343C006000F0014000593002804D08369002B15
S11343D001D1FFF717FE7F4B9F425CD17768BB8901
S11343E01B0762D53B69002B5FD0002306AD6B61D0
S11343F020336B761033AB760294029C2378002B27
S11344005DD1029BE31A04930DD0049B029A3900F8
S11344103000FFF7C0FF431C00D1CCE06A69049B65
S1134420944663446B612378002B00D1C3E00122DE
S1134430002352426A6002A95432521801342B609C
S1134440EB60AB601370AB6521780522624800F025
S11344504BFB631C9C46002835D12968CB0604D548
S1134460532302AA20309B1818700B0704D553233A
S11344702B2002AA9B18187023782A2B2CD00020FA
S11344800A21099B2278303A092A00D86BE00028D7
S11344902AD0099328E0514B9F4201D1B7689EE787
S11344A04F4B9F429BD1F76899E739003000FFF7E3
S11344B03BFC002899D0012040421FB0F0BD252BC1
S11344C09FD001349AE7444B2968C01A01238340E2
S11344D00B432B606446B7E7059B181D1B680590CA
S11344E0002B3ADB0993644623782E2B0BD1637897
S11344F0621C2A2B3FD1059B02341A1D1B680592AE
S1134500002B35DB079321780322364800F0ECFAC0
S1134510002807D0334B2A68C01A40238340134332
S11345202B6001342178631C06222F4802932976DC
S113453000F0DAFA002844D02C4B002B2FD1296844
S1134540059B0722C90528D59B1893430833059377
S11345506B69039A9B186B614FE75B42EB60022324
S11345600B432B60BFE74B4301349B18012089E7C1
S113457001235B42C6E7002314000A201A006B6083
S113458021783039092903D9002BBCD00792BAE726
S11345904243013452180123F2E70733D5E705AB50
S11345A000933A00124B2900300000E000BF039052
S11345B0039B0133CCD1BB895B0600D57BE70B9809
S11345C07BE705AB00933A00094B2900300000F06B
S11345D07FF8ECE794550000D4550000B455000072
S11345E074550000DA550000DE550000000000009C
S11345F097430000F7B5150001938A680B69009092
S11346000C00934200DA130022002B60433212782C
S1134610002A01D001332B6023689B0602D52B6846
S113462002332B60062723681F4027D0230043331F
S11346301B785A1E93412268920630D422000199B5
S113464043320098089EB047431C25D006232068B7
S11346502A68E16803400025042B03D18D1AEB433B
S1134660DB171D40A3682269934201DD9B1AED18F4
S11346700027BD4220D1002010E00137E3682A68FA
S11346809B1A9F42D2DA2200012319320199009821
S1134690089EB047431CF0D101204042FEBD3020AB
S11346A0E1184331087021005A1C45310978A218D9
S11346B0433202331170C1E7220001231A320199F7
S11346C00098089EB047431CE6D00137D1E70000AC
S11346D0F0B58BB006920A0043320793059004921A
S11346E00A7E0C00109B6E2A00D18FE017D8632A33
S11346F02CD008D8002A00D199E0582A54D026009A
S11347004236327029E0642A01D0692AF7D121683F
S11347101A68080623D5111D1960156825E0732A47
S113472000D188E008D86F2A29D0702AE7D1202246
S113473009680A43226003E0752A20D0782ADED172
S113474022007821453211706C4A30E00E001A685C
S11347504236111D196013683370012379E049064C
S1134760D9D5111D19600023D55E002D03DA2D2340
S1134770049A6D421370624B0A2703932FE020685A
S11347801968050603D5081D18600D6805E0400684
S1134790F9D50D68081D1860ADB2594B082703936D
S11347A06F2A18D00A2716E045310A70544A03923A
S11347B01A682168101D18601568080622D5CB07F1
S11347C002D52023194321601027002D03D1202373
S11347D022689A4322602300002243331A706368DC
S11347E0A360002B5CDB0422216891432160002D2F
S11347F058D1049E002B64D02600039B42361B78BC
S113480033705EE04806DAD5ADB2D8E709681A68B5
S1134810080605D5111D1960136862691A6006E05F
S11348204906F7D5111D19601368A28A1A8000235E
S1134830049E236154E01A68111D19601668002152
S11348406268300000F050F9002801D0801B6060DD
S1134850636823610023049A137041E023693200E2
S113486006990598079DA847431C43D02368002553
S11348709B070FD4099BE06898423DDA18003BE09F
S113488022000123193206990598079EB047431C5C
S113489030D00135E368099A9B1A9D42F0DBE9E7C1
S11348A0002DA9D0049E28003900FFF73DF8039B92
S11348B0013E5B5C280033703900FEF7AFFF051E34
S11348C0F1D1082F09D12368DB0706D56368226973
S11348D0934202DC3023013E3370049B9B1B236113
S11348E0079B09AA00932100069B0598FFF782FE07
S11348F0431CB3D1012040420BB0F0BDF65500007B
S1134900E555000070B506000D001400002804D021
S11349108369002B01D1FFF775FB124B9C4211D127
S11349207468A368013BA360002B05DAA269934273
S113493012DBEBB20A2B0FD02368E8B25A1C2260B8
S11349401D7070BD084B9C4201D1B468E9E7074B68
S11349509C42E6D1F468E4E7220029003000FFF726
S11349608DF9EEE794550000B4550000745500002D
S1134970002370B5064C050008002360FEF758FEBE
S1134980431C03D12368002B00D02B6070BDC046AC
S1134990F001002070B50C000E25495F00F0B2F85C
S11349A0002803DB636D1B18636570BDA389024A8D
S11349B01340A381F9E7C046FFEFFFFFF8B51F00DE
S11349C08B8905000C001600DB0505D50E23C95E96
S11349D00022022300F074F8A389054A280013403A
S11349E0A38132000E23E15E3B0000F01FF8F8BD06
S11349F0FFEFFFFF70B50C000E25495F00F060F873
S1134A00A389421C03D1054A1340A38170BD8022AF
S1134A1052011343A3816065F8E7C046FFEFFFFF2F
S1134A2010B50E23C95E00F015F810BD70B5050071
S1134A30080011000022064C22601A00FEF7D0FD87
S1134A40431C03D12368002B00D02B6070BDC046EB
S1134A50F0010020002370B5064C05000800236017
S1134A60FEF7F8FD431C03D12368002B00D02B6014
S1134A7070BDC046F0010020002370B5064C05004F
S1134A80080011002360FEF7E8FD431C03D12368EE
S1134A90002B00D02B6070BDF0010020002370B506
S1134AA0064C050008002360FEF7DCFD431C03D11F
S1134AB02368002B00D02B6070BDC046F00100209D
S1134AC070B50500080011000022064C22601A008F
S1134AD0FEF7CAFD431C03D12368002B00D02B60D2
S1134AE070BDC046F0010020C9B28218904201D1C5
S1134AF00020704703788B42FBD00130F6E7704703
S1134B007047000070B50500080011000022064C33
S1134B1022601A00FEF742FD431C03D12368002BD8
S1134B2000D02B6070BDC046F00100206E6D5F6246
S1134B3075735F696F63746C000000002841505006
S1134B402928455252295B25735D5B25645D00006D
S1134B50696E76616C69646520696F636C74206347
S1134B606D64000028070000F8060000F00600004D
S1134B7008070000000700002007000010070000DD
S1134B80180700006869665F726563656976650089
S1134B906869665F72656769737465725F636200F2
S1134BA0206869665F726563656976653A20496E57
S1134BB076616C696420617267756D656E7400005E
S1134BC04150502052657175657374656420536952
S1134BD07A65206973206C617267657220746861FC
S1134BE06E207468652072656369766564206275F9
S1134BF0666665722073697A65203C25753E3C259E
S1134C006C753E0A000000004150502052657175D9
S1134C1065737465642041646472657373206265AE
S1134C20796F6E6420746865207265636976656463
S1134C3020627566666572206164647265737320B0
S1134C40616E64206C656E67746800004752702062
S1134C503F2025640A000000284150502928494E6D
S1134C60464F2900536C6F77696E6720646F776EC7
S1134C702E2E2E0028484946294661696C20746FFF
S1134C802077616B757020746865206368697000B3
S1134C906D326D5F776966695F6362006D326D5F67
S1134CA0776966695F696E6974000000436F6E66B8
S1134CB06C696374656420495020222025752E2573
S1134CC0752E25752E25752022200A005245512067
S1134CD04E6F7420646566696E65642025640A00FD
S1134CE04669726D77617265207665722020203A7C
S1134CF02025752E25752E25752053766E726576C2
S1134D002025750A000000004669726D776172659E
S1134D10204275696C642025732054696D652025D3
S1134D20730A00004669726D77617265204D696E81
S1134D302064726976657220766572203A20257542
S1134D402E25752E25750A004472697665722076C3
S1134D5065723A2025752E25752E25750A000000EA
S1134D6031393A35303A3037000000004A616E205C
S1134D7032332032303138004472697665722062F1
S1134D8075696C742061742025730925730A000009
S1134D904D69736D61746368204669726D617772E1
S1134DA0652056657273696F6E00000063686970F0
S1134DB05F6465696E6974006661696C656420741A
S1134DC06F2064652D696E697469616C697A650028
S1134DD0427573206572726F72202835292E2564FE
S1134DE020256C780A0000004661696C65642074B3
S1134DF06F2077616B7570207468652063686970D3
S1134E0000000000447269766572566572496E66E8
S1134E106F3A2030782530386C780A006E6D5F6404
S1134E2072765F696E6974006E6D5F6472765F643A
S1134E3065696E69740000005B6E6D692073746F40
S1134E40705D3A20636869705F6465696E69742097
S1134E506661696C000000005B6E6D692073746F9D
S1134E60705D3A2053504920666C61736820646910
S1134E707361626C65206661696C00005B6E6D69CC
S1134E802073746F705D3A206661696C20696E6985
S1134E9074206275730000006661696C6564207437
S1134EA06F20656E61626C6520696E7465727275DF
S1134EB07074732E2E0000005B6E6D692073746134
S1134EC072745D3A206661696C20696E697420624F
S1134ED0757300004368697020494420256C780A82
S1134EE000000000B8120000B8120000E812000030
S1134EF06A1200008E1200009C120000CE12000004
S1134F00CE120000161300004E12000050130000D1
S1134F10501300005013000050130000AA120000A8
S1134F20C3C9C4CA7370695F636D64007370695FD9
S1134F30636D645F727370007370695F6461746140
S1134F405F726561640000007370695F77726974F1
S1134F50655F7265670000007370695F7265616404
S1134F605F726567000000006E6D5F7370695F7249
S1134F70656164006E6D5F7370695F696E6974006A
S1134F800009121B242D363F48415A536C657E7725
S1134F9019100B023D342F265158434A757C676E15
S1134FA0323B2029161F040D7A7368615E574C4505
S1134FB02B2239300F061D14636A7178474E555CF5
S1134FC0646D767F4049525B2C253E3708011A13E5
S1134FD07D746F6659504B42353C272E1118030AD5
S1134FE0565F444D727B60691E170C053A332821C5
S1134FF04F465D546B627970070E151C232A3138B5
S11350004148535A656C777E09001B122D243F36A4
S113501058514A437C756E671019020B343D262F94
S1135020737A6168575E454C3B3229201F160D0484
S11350306A6378714E475C55222B3039060F141D74
S1135040252C373E0108131A6D647F7649405B5264
S11350503C352E2718110A03747D666F5059424B54
S1135060171E050C333A21285F564D447B72696044
S11350700E071C152A233831464F545D626B707934
S11350805B6E6D69207370695D3A204661696C6579
S11350906420696E7465726E616C2072656164204F
S11350A070726F746F636F6C2077697468204352F9
S11350B043206F6E2C207265747972696E67207755
S11350C069746820435243206F66662E2E2E0000BA
S11350D05B6E6D69207370695D3A204661696C6529
S11350E06420696E7465726E616C207265616420FF
S11350F070726F746F636F6C2E2E2E005B6E6D6911
S1135100207370695D3A204661696C656420696E3C
S11351107465726E616C2077726974652070726F49
S1135120746F636F6C207265672E2E2E0000000072
S11351305B6E6D69207370695D3A204661696C200D
S1135140636D6420726561642063686970206964BA
S11351502E2E2E005B6E6D69207370695D3A2046B9
S113516061696C656420636D642C207265616420E0
S1135170626C6F636B202825303878292E2E2E0A16
S1135180000000005B6E6D69207370695D3A204613
S113519061696C656420636D6420726573706F6E01
S11351A073652C207265616420626C6F636B2028C8
S11351B025303878292E2E2E0A0000005B6E6D698A
S11351C0207370695D3A204661696C656420626C85
S11351D06F636B206461746120726561642E2E2E8E
S11351E000000000526573657420616E642072656E
S11351F074727920256420256C782025640A0000C7
S11352005B6E6D69207370695D3A204661696C65F7
S11352106420636D642077726974652C20627573F1
S1135220206572726F722E2E2E0000005B6E6D6907
S1135230207370695D3A204661696C656420636D12
S11352406420726573706F6E736520726561642C7F
S113525020627573206572726F722E2E2E0000000C
S11352605B6E6D69207370695D3A204661696C6597
S113527064206461746120726573706F6E7365205D
S1135280726561642C20627573206572726F722E70
S11352902E2E00005B6E6D69207370695D3A2046A6
S11352A061696C6564206461746120726573706FF8
S11352B06E736520726561642E2E2E282530327837
S11352C0290A00005B6E6D69207370695D3A20469F
S11352D061696C6564206461746120626C6F636BE6
S11352E020726561642C20627573206572726F721E
S11352F02E2E2E005B6E6D69207370695D3A204618
S113530061696C6564206461746120626C6F636BB5
S11353102063726320726561642C2062757320655A
S113532072726F722E2E2E005B6E6D69207370691F
S11353305D3A204661696C656420636D642C20725B
S113534065616420726567202825303878292E2EFF
S11353502E0A00005B6E6D69207370695D3A204609
S113536061696C656420636D6420726573706F6E2F
S113537073652C207265616420726567202825306E
S11353803878292E2E2E0A005B6E6D6920737069A1
S11353905D3A204661696C656420646174612072C1
S11353A06561642E2E2E0000526573657420616E53
S11353B06420726574727920256420256C780A0053
S11353C05B6E6D69207370695D3A204661696C6536
S11353D06420636D642C207772697465207265673C
S11353E0202825303878292E2E2E0A005B6E6D6910
S11353F0207370695D3A204661696C656420636D51
S11354006420726573706F6E73652C207772697493
S11354106520726567202825303878292E2E2E0ABB
S113542000000000526573657420616E642072652B
S113543074727920256420256C7820256C780A0004
S113544000080042000C0042001000420014004218
S113545000180042001C00422A2D0000262D0000E6
S1135460262D0000882D0000882D00003E2D000010
S1135470302D0000442D0000762D0000482F000040
S1135480282F0000282F0000B42F00003A2F00001E
S1135490562F00002C2F0000642F0000A42F0000C2
S11354A02D2D2057494E43313530302063686970C3
S11354B020696E666F726D6174696F6E20657861C4
S11354C06D706C65202D2D0D0A2D2D2053414D57E7
S11354D032355F58504C41494E45445F50524F203D
S11354E02D2D0D0A2D2D20436F6D70696C65643A66
S11354F0204A616E20323320323031382031393A3B
S113550035303A3133202D2D0D0000006D61696E68
S11355103A206D326D5F776966695F696E697420E0
S113552063616C6C206572726F7221282564290D89
S11355300A00000043686970204944203A200D099C
S1135540090925780D0A00005246205265766973D0
S1135550696F6E204944203A200D09090925780D08
S11355600A000000446F6E652E0D0A0D0000000055
S113557010000020000000000000000000000000F7
S11355800000000000000000000000000000000017
S11355900000000000000000000000000000000007
S11355A000000000000000000000000000000000F7
S11355B000000000000000000000000000000000E7
S11355C000000000000000000000000000000000D7
S11355D000000000232D302B2000686C4C00656611
S11355E06745464700303132333435363738394130
S11355F04243444546003031323334353637383946
S11356006162636465660000F8B5C046F8BC08BC16
S11356109E467047DD000000F8B5C046F8BC08BCE3
S10B56209E467047B50000002E
S1135628401F0000080000000001010010000020D5
S11356380000000094550000B455000074550000A3
S1135648000000000000000000000000000000004E
S1135658000000000000000000000000000000003E
S1135668000000000000000000000000000000002E
S1135678000000000000000000000000000000001E
S1135688000000000000000000000000000000000E
S90334B90F
