:1000000058200020310500002D0500002D050000BE
:1000100000000000000000000000000000000000E0
:100020000000000000000000000000002D0500009E
:1000300000000000000000002D0500002D0500005C
:100040002D0500002D0500002D0500002D050000E8
:100050002D0500002D0500002D0500002D050000D8
:100060002D050000150100002501000035010000EC
:100070004501000055010000650100002D0500004C
:100080002D0500002D0500002D0500002D050000A8
:100090002D05000000000000000000002D050000FC
:1000A0002D0500002D0500002D0500002D05000088
:1000B0000000000010B5064C2378002B07D1054B3B
:1000C000002B02D0044800E000BF0123237010BDC4
:1000D0000400002000000000B0060000084B10B52E
:1000E000002B03D00749084800E000BF0748036819
:1000F000002B00D110BD064B002BFBD09847F9E731
:100100000000000008000020B0060000B00600005B
:100110000000000010B5024B1B680020984710BD7E
:100120002000002010B5024B5B680120984710BDED
:100130002000002010B5024B9B680220984710BD9C
:100140002000002010B5024BDB680320984710BD4B
:100150002000002010B5024B1B690420984710BDF9
:100160002000002010B5024B5B690520984710BDA8
:1001700020000020704700000C4B1B68002B06D1AC
:10018000EFF31083002B07D00022094B1A70074AA7
:10019000136801331360704772B6BFF35F8F00229C
:1001A000044B1A700132024B1A70F0E7380000203D
:1001B0003C00002000000020084B1A68013A1A6039
:1001C0001B68002B09D1064B1B78002B05D00122A0
:1001D000044B1A70BFF35F8F62B67047380000207F
:1001E0003C0000200000002070B50C490B6A047828
:1001F000857840780122104080014026B3430343B4
:100200002A40D2018020834313430322224012025A
:100210000348034013430B6270BDC0460008004012
:10022000FFFCFFFF082803D88000254B1B589F4682
:10023000172044E0234A136A02210B431362002073
:100240003DE0204A936902210B439361002036E090
:100250001C4A138A02210B43138200202FE0194A03
:10026000938A02210B439382002028E016490B68F1
:10027000022213430B60134B9A8419000E32CB6891
:100280001A42FCD0104A91680E4BD96252689A62A9
:1002900000229A8419001032CB681A42FCD00A4B13
:1002A0001B689BB2074A9384002008E0054944225A
:1002B0008B5C022003438B54002000E00020704739
:1002C0006C060000000800404000002030B585B0FA
:1002D000C222D2001A4B9A601A4A53681E218B43DD
:1002E000536001236A4613700024174DE0B269463B
:1002F000A8470134252CF9D103A800244470012516
:1003000085700470114B98470620114B9847114B8C
:100310009847114B1C725C729C72DC7201956B46A3
:100320005C7006236A46137014725472694600208A
:100330000A4B984700200A4B984705B030BDC0468D
:100340000008004000400041E1040000E901000015
:10035000250200006503000000040040890300003E
:1003600041040000064A936908210B43936101226E
:10037000044B1A7019000B781342FCD17047C04629
:1003800000040040000C004070B5060004000D7829
:100390002D0205434B78002B02D08023DB021D4346
:1003A0004B7A002B02D080231B031D434868012891
:1003B00010D9431E184234D1022830D9022300221A
:1003C00001325B009842FBD81202324314008023B2
:1003D0005B031D430B7A002B02D080239B031D433C
:1003E000134A53785BB2002BFBDB124B9847124B3E
:1003F0001E700F4A53785BB2002BFBDB0C4B9C60EA
:100400001A0053785BB2002BFBDB094A536880214A
:1004100049020B401D435560084B984770BD0022B0
:10042000D2E70402344380239B021D43D2E7C04637
:10043000000C004079010000080C0040B9010000E8
:1004400010B504000B4A53785BB2002BFBDB0A4B60
:1004500098470A4B1C70074A53785BB2002BFBDBB2
:10046000044A516880235B020B435360044B984756
:1004700010BDC046000C004079010000040C004093
:10048000B901000010B504000F4B98470F4B1C70CA
:100490000F4A53881B05180F53880E490B40538091
:1004A00053880D490B40538011008022D2014B88A4
:1004B0001342FCD106494A8803020648024013430E
:1004C0004B80064B984710BD79010000020C00409C
:1004D000000C0040FFF0FFFFFFBFFFFFB90100006D
:1004E00010B50C7824020443024B9847A4B2024B87
:1004F0005C8010BD85040000000C004070470000C7
:1005000010B5054B9847054B9847054B9847054B49
:100510009847054B984710BDCD02000075010000BB
:10052000FD040000FD040000FD040000FEE70000E3
:10053000F8B52A4A2A4B9A4211D01A00294B9A42FE
:100540000DD2294A03339B1A9B0801339B000022DA
:10055000234822498C58845004329A42FAD1234AC3
:10056000234B9A420AD2D34321495B1803218B4380
:1005700004339B18002102C29342FCD11D4AFF2183
:100580001D4B8B439360FD3990235B001B4AD15078
:100590001B4AD3780325AB4302242343D370D3787B
:1005A0000C27BB4308263343D370164B987B30226D
:1005B0009043202210439873997BB9433143997338
:1005C0009A7BAA4322439A730F4A536880210B43B4
:1005D00053600E4B98470E4B9847FEE7B00600005D
:1005E000000000200400002004000020040000207F
:1005F0005800002000ED00E0000000000070004105
:100600000050004100480041004000412506000024
:100610001506000010B5024B9847002010BDC046DB
:100620000105000070B500260C4D0D4C641BA41094
:10063000A64209D1002600F02BF80A4D0A4C641B93
:10064000A410A64205D170BDB300EB5898470136FF
:10065000EEE7B300EB5898470136F2E79C0600003E
:100660009C0600009C060000A0060000500200004E
:100670003002000030020000BC0200004202000014
:100680005E020000340200006C020000AC020000B8
:10069000F8B5C046F8BC08BC9E467047DD000000B7
:1006A000F8B5C046F8BC08BC9E467047B5000000CF
:0406B0000100000045
:0400000300000531C3
:00000001FF
